:020000040800F2
:100000000050002059030008C9020008CB02000874
:10001000CD020008CF020008D10200080000000055
:10002000000000000000000000000000D3020008F3
:10003000D502000800000000D7020008D90200081D
:10004000A1030008A1030008A1030008A103000800
:10005000A1030008A1030008DD020008A1030008B5
:10006000A1030008A1030008A1030008A1030008E0
:10007000A1030008A1030008A1030008A1030008D0
:10008000A1030008A1030008A1030008A1030008C0
:10009000A1030008A1030008A1030008A1030008B0
:1000A000A1030008A1030008A1030008A1030008A0
:1000B000A1030008A1030008A1030008A103000890
:1000C000A1030008A1030008A1030008A103000880
:1000D000A1030008A1030008A1030008A103000870
:1000E000A1030008A1030008A1030008000000000C
:1000F0000000000000000000000000000000000000
:0C01000000000000000000005FF808F1A3
:10010C000348044B834202D0034B03B1184770479A
:10011C000000002000000020000000000548064BF5
:10012C001B1AD90F01EBA301491002D0034B03B1E9
:10013C00184770470000002000000020000000005D
:10014C0010B5064C237843B9FFF7DAFF044B13B113
:10015C000448AFF300800123237010BD0000002081
:10016C0000000000EC03000808B5054B1BB1054965
:10017C000548AFF30080BDE80840FFF7CFBF00BFD4
:10018C000000000004000020EC03000882B0019085
:10019C0000E000BF019B5A1E0192002BF9D102B066
:1001AC0070470000154B9A6942F004029A619A69F3
:1001BC0042F008029A61A3F582331A6822F4407265
:1001CC001A601A6842F400721A601A6822F44062CB
:1001DC001A604FF480221A61A3F580631A6822F02A
:1001EC0003021A601A6822F00C021A601A6842F0B4
:1001FC0008021A6001221A61704700BF0010024009
:10020C000F4A936943F001039361A2F58832936816
:10021C0023F00F0393600B4BDA6842F00102DA60B3
:10022C009A6822F001029A601A6842F001021A6080
:10023C00054B40221A60102283F80623704700BF3A
:10024C00001002400004014000E100E0024B9868FD
:10025C0000F00100704700BF00080140024AD3685B
:10026C0083F00403D3607047000C014000B583B0E9
:10027C000E4B0193FFF796FFFFF7C2FF62B60C48D7
:10028C00FFF784FF0B4B1B78002BFBD00023094A94
:10029C001370094A1370FA20FFF778FFFFF7D6FFA7
:1002AC000028EFD1FFF7DAFFECE700BFE093040082
:1002BC00A08601001D0000201C000020FEE7FEE7C8
:1002CC00FEE7FEE7FEE77047704770477047000097
:1002DC00084B5B6913F0010F0AD0074B1B7823B94D
:1002EC000123054A1370054A1370024B01225A610F
:1002FC00704700BF000401401C0000201D000020BE
:10030C000F4B1A6842F001021A6059680D4A0A40F4
:10031C005A601A6822F0847222F480321A601A68C9
:10032C0022F480221A605A6822F4FE025A604FF4BA
:10033C001F029A60044B4FF000629A60704700BF36
:10034C00001002400000FFF800ED00E0002103E087
:10035C000B4B5B58435004310A480B4B42189A42E2
:10036C00F6D30A4A02E0002342F8043B084B9A42B7
:10037C00F9D3FFF7C5FF00F00FF8FFF777FF7047D1
:10038C000C040008000000200000002000000020E9
:10039C0020000020FEE7000070B500260C4C0D4B31
:1003AC001D1BB6EBA50F09D1002600F019F80A4C5D
:1003BC000A4B1D1BB6EBA50F05D170BD54F8043BC1
:1003CC0098470136EDE754F8043B98470136F1E7BE
:1003DC0004040008040400080404000808040008CD
:1003EC00F8B500BFF8BC08BC9E467047F8B500BF16
:0803FC00F8BC08BC9E467047E6
:040404007501000876
:040408004D0100089A
:040000050800035993
:00000001FF
